:100000000C945D000C9485000C9485000C94850084
:100010000C9485000C9485000C9485000C9485004C
:100020000C9485000C9485000C9485000C94E804D5
:100030000C9485000C9485000C9485000C9485002C
:100040000C949E040C9485000C946C040C9446044F
:100050000C9485000C9485000C9485000C9485000C
:100060000C9485000C94850000000008000201003B
:100070000003040700000000000000000000000072
:10008000250028002B0000000000240027002A0083
:10009000040404040404040402020202020203032E
:1000A0000303030301020408102040800102040836
:1000B0001020010204081020A90511241FBECFEF53
:1000C000D8E0DEBFCDBF21E0AAE1B1E001C01D92C2
:1000D000AD3FB207E1F711E0A0E0B1E0E0ECF2E102
:1000E00002C005900D92AA31B107D9F710E0CDE515
:1000F000D0E004C02197FE010E942407CC35D1072F
:10010000C9F70E94FF050C945E090C94000090E072
:10011000FC01EC55FF4F2491FC01E057FF4F849107
:10012000882399F090E0880F991FFC01EA57FF4F50
:10013000A591B491FC01E458FF4F859194918FB73C
:10014000F894EC91E22BEC938FBF0895CF92DF925D
:10015000EF92FF920F931F93CF93DF936C017A017D
:100160008B01C0E0D0E0CE15DF0589F0D8016D919C
:100170008D01D601ED91FC910190F081E02DC60139
:100180000995892B11F47E0102C02196ECCFC7019D
:10019000DF91CF911F910F91FF90EF90DF90CF9063
:1001A0000895FC01918D828D981761F0828DDF0199
:1001B000A80FB11D5D968C91928D9F5F9F73928F5A
:1001C00090E008958FEF9FEF0895FC01918D828D4F
:1001D000981731F0828DE80FF11D858D90E008951C
:1001E0008FEF9FEF0895FC01918D228D892F90E074
:1001F000805C9F4F821B91098F73992708958EE42D
:1002000091E00E94F30021E0892B09F420E0822F85
:100210000895FC01848DDF01A80FB11DA35ABF4FC3
:100220002C91848D90E001968F739927848FA689F5
:10023000B7892C93A089B1898C9180648C93938D1C
:10024000848D981306C00288F389E02D80818F7D0C
:1002500080830895EF92FF920F931F93CF93DF93C4
:10026000EC0181E0888F9B8D8C8D981305C0E88907
:10027000F989808185FD24C0F62E0B8D10E00F5F7B
:100280001F4F0F731127E02E8C8DE8120CC00FB694
:1002900007FCFACFE889F989808185FFF5CFCE0187
:1002A0000E940901F1CF8B8DFE01E80FF11DE35A89
:1002B000FF4FF0820B8FEA89FB898081806207C043
:1002C000EE89FF896083E889F98980818064808371
:1002D00081E090E0DF91CF911F910F91FF90EF901F
:1002E0000895CF93DF93EC01888D8823C9F0EA89C4
:1002F000FB89808185FD05C0A889B9898C9186FD1F
:100300000FC00FB607FCF5CF808185FFF2CFA8891B
:10031000B9898C9185FFEDCFCE010E940901E7CF0D
:10032000DF91CF91089580E090E0892B29F00E9421
:10033000FF0081110C940000089590E0FC01E85941
:10034000FF4F3491FC01EC55FF4F2491FC01E05725
:10035000FF4FE491EE2309F43BC0332339F13330EE
:1003600091F038F43130A9F0323001F584B58F7D49
:1003700012C0373091F03830A1F03430B9F48091A8
:1003800080008F7D03C0809180008F7780938000F4
:100390000DC084B58F7784BD09C08091B0008F7780
:1003A00003C08091B0008F7D8093B000F0E0EE0F2D
:1003B000FF1FE458FF4FA591B4918FB7F894EC91CB
:1003C000611103C020952E2301C02E2B2C938FBFCB
:1003D00008953FB7F8948091450190914601A0910E
:1003E0004701B091480126B5A89B05C02F3F19F0E1
:1003F0000196A11DB11D3FBFBA2FA92F982F8827A5
:10040000820F911DA11DB11DBC01CD0142E0660FFF
:10041000771F881F991F4A95D1F708958F929F9251
:10042000AF92BF92CF92DF92EF92FF926B017C016D
:100430000E94E9014B015C01C114D104E104F10403
:10044000F1F00E94E901DC01CB0188199909AA09A0
:10045000BB09883E9340A105B10570F321E0C21AA3
:10046000D108E108F10888EE880E83E0981EA11CEF
:10047000B11CC114D104E104F10419F7DDCFFF90E0
:10048000EF90DF90CF90BF90AF909F908F900895A6
:10049000CF92DF92EF92FF92CF93DF93EC01603225
:1004A00082E078070CF03DC077FD06C0653B710522
:1004B0002CF064EB70E002C060E070E0898128E815
:1004C00030E06901C81AD10887FDD394CC0CDD1C3B
:1004D000CC0CDD1C0D2C000CEE08FF088A8128E5F1
:1004E00032E0281B310987FD3395220F331F220F7D
:1004F000331FC901330FAA0BBB0B9C01AD012C1993
:100500003D094E095F09DB010E94250924EB30E01B
:1005100040E050E00E94FB08C20ED31EE41EF51E10
:10052000B60188818C3080F5998148E850E0491BFC
:10053000510997FD5395440F551F440F551F6417DC
:10054000750784F09A8128E532E0291B310997FD6F
:100550003395220F331F220F331FAB0126173707A6
:100560000CF4A90142505109440F551F2FB7F894BC
:1005700090E0FC01EE0FFF1F8E0F9F1FFC01E45E59
:10058000FE4F528341832FBFDF91CF91FF90EF90B9
:10059000DF90CF900895FC0190911B019C30A0F456
:1005A00081E0890F80931B019083892F90E0FC01EB
:1005B000EE0FFF1F8E0F9F1FFC01E45EFE4F88EBC6
:1005C0009BE09283818308958FEF80830895682F45
:1005D00088E00E949D016AE070E080E090E00C9469
:1005E0000E02CF92DF92EF92FF920F931F93B8010A
:1005F000641B750B77FF03C07195619571094217F4
:10060000530724F0CA01821B930B03C0C901841B4A
:10061000950B0E94FC06CB0161E070E0681B790B32
:10062000072E000C880B990B0E94D4076B017C01EC
:1006300020E030E040E05FE30E94970787FF0AC0B8
:10064000A701960160E070E080E89FE30E942A071E
:100650006B017C0120E030E040E85FE3C701B601B8
:100660000E942A0720E030E040E850E40E94890818
:1006700020E030E040E85FE30E942B076B017C0143
:100680002DEC3CEC4CEC5EE30E94970787FD11C01B
:1006900020E030E040E251E4C701B6010E94840846
:1006A000181654F4C12CD12C80E2E82E81E4F82EE7
:1006B00003C0C12CD12C7601C701B6011F910F9147
:1006C000FF90EF90DF90CF9008954F925F926F92DE
:1006D0007F92AF92BF92CF92DF92EF92FF920F93F1
:1006E0001F93CF93DF937C016B0181E090E00E9428
:1006F000E7025601AA0CBB1CE501CC0DDD1DC5515E
:10070000DE4F88818C3008F057C08601075F1F4F8D
:10071000802F0E9487008881E82FF0E09F01220F40
:10072000331FE20FF31FE45EFE4F0F739081907C46
:10073000092B008397EA99839BE49A836CE00E94DB
:10074000F0069CE0899FF001112440E050E09A01FE
:100750002E0F3F1FB901660F771F260F371FD901D4
:10076000A45EBE4F9C9196FD16C04F5F5F4F4C300C
:10077000510569F781110FC01092800082E08093CB
:1007800081001092850010928400B19A80916F00D0
:10079000826080936F00F501EC0DFD1DE551FE4F69
:1007A000E081F0E0CF01880F991FE80FF91FE45EA8
:1007B000FE4F808180648083F501E050FF4FA08070
:1007C000B180C7018A199B09650118161906D4F56D
:1007D000EC14FD04FCF08FEFC81AD80AB601CE0164
:1007E0000E94480285019601A701C301B2010E943F
:1007F000F1022B013C0120E030E040E251E40E9494
:1008000089080E949C07072E000C880B990B0E94F8
:100810000E02DECF68EE73E080E090E00E940E02F0
:1008200080E090E0DF91CF911F910F91FF90EF90CA
:10083000DF90CF90BF90AF907F906F905F904F9080
:100840000C94E702CE14DF042CF391E0C91AD1080E
:10085000B601CE010E94480285019601A701C3019D
:10086000B2010E94F1022B013C0120E030E040E2A5
:1008700051E40E9489080E949C07072E000C880BF7
:10088000990B0E940E02DECF0E94F6081F920F9273
:100890000FB60F9211242F933F934F935F936F9353
:1008A0007F938F939F93AF93BF93EF93FF938EE4C8
:1008B00091E00E940901FF91EF91BF91AF919F914B
:1008C0008F917F916F915F914F913F912F910F90F9
:1008D0000FBE0F901F9018951F920F920FB60F9298
:1008E00011242F938F939F93EF93FF93E0915E01D9
:1008F000F0915F018081E0916401F091650182FDDA
:1009000012C09081809167018F5F8F732091680181
:10091000821751F0E0916701F0E0E25BFE4F958FA6
:100920008093670101C08081FF91EF919F918F912A
:100930002F910F900FBE0F901F9018951F920F923E
:100940000FB60F9211242F933F938F939F93AF93E2
:10095000BF938091410190914201A0914301B091D8
:1009600044013091400123E0230F2D3720F40196FC
:10097000A11DB11D05C026E8230F0296A11DB11DC2
:10098000209340018093410190934201A093430141
:10099000B09344018091450190914601A091470197
:1009A000B09148010196A11DB11D8093450190931E
:1009B0004601A0934701B0934801BF91AF919F9129
:1009C0008F913F912F910F900FBE0F901F90189510
:1009D0001F920F920FB60F9211242F933F934F93B4
:1009E0005F936F937F938F939F93AF93BF93EF9397
:1009F000FF9380911A0187FF05C010928500109225
:100A000084001BC020911A01022E000C330B809130
:100A10001B0190E02817390784F480911A01082EF1
:100A2000000C990BFC01EE0FFF1F8E0F9F1FFC01A6
:100A3000E45EFE4F808186FD15C080911A018F5FB4
:100A400080931A0120911A01022E000C330B809121
:100A50001B0190E028173907C4F480911A018C30EB
:100A600064F113C080911A01082E000C990BFC014F
:100A7000EE0FFF1F8E0F9F1FFC01E45EFE4F808173
:100A800060E08F730E949D01D8CF80918400909187
:100A90008500049680349C4918F480E49CE905C0E4
:100AA00080918400909185000496909389008093B2
:100AB00088008FEF80931A013BC020918400309111
:100AC000850080911A01082E000C990BFC01EE0F95
:100AD000FF1F8E0F9F1FFC01E45EFE4F81819281FC
:100AE000820F931F909389008093880080911A0150
:100AF000082E000C990BFC01EE0FFF1F8E0F9F1F9D
:100B0000FC01E45EFE4F808186FF12C080911A01D5
:100B1000082E000C990BFC01EE0FFF1F8E0F9F1F7C
:100B2000FC01E45EFE4F808161E08F730E949D01B5
:100B3000FF91EF91BF91AF919F918F917F916F91B5
:100B40005F914F913F912F910F900FBE0F901F908B
:100B50001895EEE4F1E01382128288EE93E0A0E0B3
:100B6000B0E084839583A683B7838EE091E0918380
:100B7000808385EC90E09587848784EC90E097876C
:100B8000868780EC90E0918B808B81EC90E0938B5A
:100B9000828B82EC90E0958B848B86EC90E0978B37
:100BA000868B118E128E138E148E8AEF91E00E9426
:100BB000CB0287EF91E00E94CB0284EF91E00E948C
:100BC000CB02EBEEF1E08091FA019091FB01A09154
:100BD000FC0180839183A2838091F7019091F801B9
:100BE000A091F90183839483A5838091F40190916E
:100BF000F501A091F60186839783A08708957894E4
:100C000084B5826084BD84B5816084BD85B5826011
:100C100085BD85B5816085BD80916E0081608093C2
:100C20006E0010928100809181008260809381002B
:100C3000809181008160809381008091800081603B
:100C4000809380008091B10084608093B100809196
:100C5000B00081608093B00080917A0084608093BE
:100C60007A0080917A00826080937A0080917A0085
:100C7000816080937A0080917A00806880937A0006
:100C80001092C100E0915E01F0915F0182E08083EB
:100C9000E0915A01F0915B011082E0915C01F091CA
:100CA0005D018FEC808310926601E0916201F0910A
:100CB000630186E08083E0916001F09161018081B1
:100CC00080618083E0916001F091610180818860A2
:100CD0008083E0916001F091610180818068808370
:100CE000E0916001F091610180818F7D808388E0D7
:100CF0000E94870080E090E00E94E702C0E0D0E020
:100D0000BE018AE590E00E9465036EE170E080E03C
:100D100090E00E940E022196C330D10589F7FF248E
:100D2000F3948EE491E00E94F300181619060CF07B
:100D300054C0C0914C01D0914D018EE491E00E94CD
:100D4000D100FE01E65BFE4F80832196C230D105C3
:100D500029F0D0934D01C0934C0106C010924D0173
:100D600010924C01F0924901809149018130A9F51E
:100D700000914B01C02FD0E010914A01612F8EE409
:100D800091E00E942A01602F8EE491E00E942A01E6
:100D900010924901113051F460E070E0CE010E94E0
:100DA0006503D0930101C093000117C0123051F4C4
:100DB00061E070E0CE010E946503D0930301C0930F
:100DC00002010BC0133049F462E070E0CE010E94D2
:100DD0006503D0930501C09304010E949301A1CF44
:100DE000991B79E004C0991F961708F0961B881F7D
:100DF0007A95C9F78095089597FB072E16F400940D
:100E000007D077FD09D00E94100707FC05D03EF4FB
:100E1000909581959F4F0895709561957F4F0895A6
:100E2000AA1BBB1B51E107C0AA1FBB1FA617B70710
:100E300010F0A61BB70B881F991F5A95A9F780952C
:100E40009095BC01CD010895EE0FFF1F0590F49120
:100E5000E02D09945058BB27AA270E9442070C9402
:100E60004A080E943C0838F00E94430820F039F4F8
:100E70009F3F19F426F40C9439080EF4E095E7FB33
:100E80000C943308E92F0E945B0858F3BA176207E5
:100E900073078407950720F079F4A6F50C947D0874
:100EA0000EF4E0950B2EBA2FA02D0B01B901900185
:100EB0000C01CA01A0011124FF27591B99F0593FC9
:100EC00050F4503E68F11A16F040A22F232F342F11
:100ED0004427585FF3CF469537952795A795F0405F
:100EE0005395C9F77EF41F16BA0B620B730B840B74
:100EF000BAF09150A1F0FF0FBB1F661F771F881F2C
:100F0000C2F70EC0BA0F621F731F841F48F4879583
:100F100077956795B795F7959E3F08F0B0CF939575
:100F2000880F08F09927EE0F9795879508950E94EE
:100F30000F0808F481E008950E94A3076894B11196
:100F40000C947E0808950E94630888F09F5798F0DB
:100F5000B92F9927B751B0F0E1F0660F771F881FBE
:100F6000991F1AF0BA95C9F714C0B13091F00E94D8
:100F70007D08B1E008950C947D08672F782F8827AD
:100F8000B85F39F0B93FCCF3869577956795B395FF
:100F9000D9F73EF490958095709561957F4F8F4F6E
:100FA0009F4F0895E89409C097FB3EF49095809573
:100FB000709561957F4F8F4F9F4F9923A9F0F92F1F
:100FC00096E9BB279395F695879577956795B7959D
:100FD000F111F8CFFAF4BB0F11F460FF1BC06F5F83
:100FE0007F4F8F4F9F4F16C0882311F096E911C095
:100FF000772321F09EE8872F762F05C0662371F0B6
:1010000096E8862F70E060E02AF09A95660F771FC9
:10101000881FDAF7880F9695879597F90895990FA5
:101020000008550FAA0BE0E8FEEF16161706E807B2
:10103000F907C0F012161306E407F50798F0621BD3
:10104000730B840B950B39F40A2661F0232B242BA8
:10105000252B21F408950A2609F4A140A6958FEFC7
:10106000811D811D089597F99F6780E870E060E019
:1010700008959FEF80EC089500240A941616170631
:1010800018060906089500240A9412161306140679
:1010900005060895092E0394000C11F4882352F0DC
:1010A000BB0F40F4BF2B11F460FF04C06F5F7F4F94
:1010B0008F4F9F4F089557FD9058440F551F59F07B
:1010C0005F3F71F04795880F97FB991F61F09F3F35
:1010D00079F087950895121613061406551FF2CF5E
:1010E0004695F1DF08C0161617061806991FF1CFAE
:1010F00086957105610508940895E894BB276627D5
:101100007727CB0197F908950E940F0808F48FEF15
:1011100008950E949C080C944A080E943C0838F0EC
:101120000E94430820F0952311F00C9433080C948E
:10113000390811240C947E080E945B0870F3959F77
:10114000C1F3950F50E0551F629FF001729FBB27BE
:10115000F00DB11D639FAA27F00DB11DAA1F649F5A
:101160006627B00DA11D661F829F2227B00DA11D0D
:10117000621F739FB00DA11D621F839FA00D611D93
:10118000221F749F3327A00D611D231F849F600DB4
:10119000211D822F762F6A2F11249F5750409AF0DD
:1011A000F1F088234AF0EE0FFF1FBB1F661F771F69
:1011B000881F91505040A9F79E3F510580F00C9434
:1011C00033080C947E085F3FE4F3983ED4F3869591
:1011D00077956795B795F795E7959F5FC1F7FE2BD4
:1011E000880F911D9695879597F9089581E090E075
:1011F000F8940C945E09052E97FB1EF400940E944F
:10120000120957FD07D00E942D0907FC03D04EF4A8
:101210000C94120950954095309521953F4F4F4FB2
:101220005F4F089590958095709561957F4F8F4F92
:101230009F4F08950E944F09A59F900DB49F900D58
:10124000A49F800D911D11240895B7FF0C941A09D5
:101250000E941A09821B930B0895A1E21A2EAA1B61
:10126000BB1BFD010DC0AA1FBB1FEE1FFF1FA21756
:10127000B307E407F50720F0A21BB30BE40BF50B53
:10128000661F771F881F991F1A9469F760957095DC
:10129000809590959B01AC01BD01CF010895A29F5F
:1012A000B001B39FC001A39F700D811D1124911D3A
:1012B000B29F700D811D1124911D0895F894FFCFE8
:1012C0005A005A005A0001000000000000002A01E4
:0A12D000A600F300D100E500710153
:00000001FF
