:100000000C945D000C9485000C9485000C94850084
:100010000C9485000C9485000C9485000C9485004C
:100020000C9485000C9485000C9485000C94E804D5
:100030000C9485000C9485000C9485000C9485002C
:100040000C949E040C9485000C946C040C9446044F
:100050000C9485000C9485000C9485000C9485000C
:100060000C9485000C94850000000008000201003B
:100070000003040700000000000000000000000072
:10008000250028002B0000000000240027002A0083
:10009000040404040404040402020202020203032E
:1000A0000303030301020408102040800102040836
:1000B0001020010204081020A90511241FBECFEF53
:1000C000D8E0DEBFCDBF11E0A0E0B1E0E8ECF2E1A6
:1000D00002C005900D92A631B107D9F721E0A6E143
:1000E000B1E001C01D92A93FB207E1F710E0CDE5F4
:1000F000D0E004C02197FE010E945709CC35D107FA
:10010000C9F70E94FF050C9462090C94000090E06E
:10011000FC01EC55FF4F2491FC01E057FF4F849107
:10012000882399F090E0880F991FFC01EA57FF4F50
:10013000A591B491FC01E458FF4F859194918FB73C
:10014000F894EC91E22BEC938FBF0895CF92DF925D
:10015000EF92FF920F931F93CF93DF936C017A017D
:100160008B01C0E0D0E0CE15DF0589F0D8016D919C
:100170008D01D601ED91FC910190F081E02DC60139
:100180000995892B11F47E0102C02196ECCFC7019D
:10019000DF91CF911F910F91FF90EF90DF90CF9063
:1001A0000895FC01918D828D981761F0828DDF0199
:1001B000A80FB11D5D968C91928D9F5F9F73928F5A
:1001C00090E008958FEF9FEF0895FC01918D828D4F
:1001D000981731F0828DE80FF11D858D90E008951C
:1001E0008FEF9FEF0895FC01918D228D892F90E074
:1001F000805C9F4F821B91098F73992708958AE431
:1002000091E00E94F30021E0892B09F420E0822F85
:100210000895FC01848DDF01A80FB11DA35ABF4FC3
:100220002C91848D90E001968F739927848FA689F5
:10023000B7892C93A089B1898C9180648C93938D1C
:10024000848D981306C00288F389E02D80818F7D0C
:1002500080830895EF92FF920F931F93CF93DF93C4
:10026000EC0181E0888F9B8D8C8D981305C0E88907
:10027000F989808185FD24C0F62E0B8D10E00F5F7B
:100280001F4F0F731127E02E8C8DE8120CC00FB694
:1002900007FCFACFE889F989808185FFF5CFCE0187
:1002A0000E940901F1CF8B8DFE01E80FF11DE35A89
:1002B000FF4FF0820B8FEA89FB898081806207C043
:1002C000EE89FF896083E889F98980818064808371
:1002D00081E090E0DF91CF911F910F91FF90EF901F
:1002E0000895CF93DF93EC01888D8823C9F0EA89C4
:1002F000FB89808185FD05C0A889B9898C9186FD1F
:100300000FC00FB607FCF5CF808185FFF2CFA8891B
:10031000B9898C9185FFEDCFCE010E940901E7CF0D
:10032000DF91CF91089580E090E0892B29F00E9421
:10033000FF0081110C940000089590E0FC01E85941
:10034000FF4F3491FC01EC55FF4F2491FC01E05725
:10035000FF4FE491EE2309F43BC0332339F13330EE
:1003600091F038F43130A9F0323001F584B58F7D49
:1003700012C0373091F03830A1F03430B9F48091A8
:1003800080008F7D03C0809180008F7780938000F4
:100390000DC084B58F7784BD09C08091B0008F7780
:1003A00003C08091B0008F7D8093B000F0E0EE0F2D
:1003B000FF1FE458FF4FA591B4918FB7F894EC91CB
:1003C000611103C020952E2301C02E2B2C938FBFCB
:1003D00008953FB7F8948091410190914201A09116
:1003E0004301B091440126B5A89B05C02F3F19F0E9
:1003F0000196A11DB11D3FBFBA2FA92F982F8827A5
:10040000820F911DA11DB11DBC01CD0142E0660FFF
:10041000771F881F991F4A95D1F708958F929F9251
:10042000AF92BF92CF92DF92EF92FF926B017C016D
:100430000E94E9014B015C01C114D104E104F10403
:10044000F1F00E94E901DC01CB0188199909AA09A0
:10045000BB09883E9340A105B10570F321E0C21AA3
:10046000D108E108F10888EE880E83E0981EA11CEF
:10047000B11CC114D104E104F10419F7DDCFFF90E0
:10048000EF90DF90CF90BF90AF909F908F900895A6
:10049000CF92DF92EF92FF92CF93DF93EC01603225
:1004A00082E078070CF03DC077FD06C0653B710522
:1004B0002CF064EB70E002C060E070E0898128E815
:1004C00030E06901C81AD10887FDD394CC0CDD1C3B
:1004D000CC0CDD1C0D2C000CEE08FF088A8128E5F1
:1004E00032E0281B310987FD3395220F331F220F7D
:1004F000331FC901330FAA0BBB0B9C01AD012C1993
:100500003D094E095F09DB010E941E0724EB30E024
:1005100040E050E00E94F406C20ED31EE41EF51E19
:10052000B60188818C3080F5998148E850E0491BFC
:10053000510997FD5395440F551F440F551F6417DC
:10054000750784F09A8128E532E0291B310997FD6F
:100550003395220F331F220F331FAB0126173707A6
:100560000CF4A90142505109440F551F2FB7F894BC
:1005700090E0FC01EE0FFF1F8E0F9F1FFC01E85E55
:10058000FE4F528341832FBFDF91CF91FF90EF90B9
:10059000DF90CF900895FC01909117019C30A0F45A
:1005A00081E0890F809317019083892F90E0FC01EF
:1005B000EE0FFF1F8E0F9F1FFC01E85EFE4F88EBC2
:1005C0009BE09283818308958FEF80830895682F45
:1005D00088E00E949D016AE070E080E090E00C9469
:1005E0000E02CF92DF92EF92FF920F931F93B8010A
:1005F000641B750B77FF03C07195619571094217F4
:10060000530724F0CA01821B930B03C0C901841B4A
:10061000950B0E942F09CB0161E070E0681B790BFC
:10062000072E000C880B990B0E9401086B017C01BE
:1006300020E030E040E05FE30E94C40787FF0AC08B
:10064000A701960160E070E080E89FE30E945707F1
:100650006B017C0120E030E040E85FE3C701B601B8
:100660000E94570720E030E040E850E40E94B608BE
:1006700020E030E040E85FE30E9458076B017C0116
:100680002DEC3CEC4CEC5EE30E94C40787FD11C0EE
:1006900020E030E040E251E4C701B6010E94B10819
:1006A000181654F4C12CD12C80E2E82E81E4F82EE7
:1006B00003C0C12CD12C7601C701B6011F910F9147
:1006C000FF90EF90DF90CF9008954F925F926F92DE
:1006D0007F92AF92BF92CF92DF92EF92FF920F93F1
:1006E0001F93CF93DF937C016B0181E090E00E9428
:1006F000E7025601AA0CBB1CE501CC0DDD1DC9515A
:10070000DE4F88818C3008F057C08601075F1F4F8D
:10071000802F0E9487008881E82FF0E09F01220F40
:10072000331FE20FF31FE85EFE4F0F739081907C42
:10073000092B008397EA99839BE49A836CE00E94DB
:1007400023099CE0899FF001112440E050E09A01C8
:100750002E0F3F1FB901660F771F260F371FD901D4
:10076000A85EBE4F9C9196FD16C04F5F5F4F4C3008
:10077000510569F781110FC01092800082E08093CB
:1007800081001092850010928400B19A80916F00D0
:10079000826080936F00F501EC0DFD1DE951FE4F65
:1007A000E081F0E0CF01880F991FE80FF91FE85EA4
:1007B000FE4F808180648083F501E050FF4FA08070
:1007C000B180C7018A199B09650118161906D4F56D
:1007D000EC14FD04FCF08FEFC81AD80AB601CE0164
:1007E0000E94480285019601A701C301B2010E943F
:1007F000F1022B013C0120E030E040E251E40E9494
:10080000B6080E94C907072E000C880B990B0E949E
:100810000E02DECF68EE73E080E090E00E940E02F0
:1008200080E090E0DF91CF911F910F91FF90EF90CA
:10083000DF90CF90BF90AF907F906F905F904F9080
:100840000C94E702CE14DF042CF391E0C91AD1080E
:10085000B601CE010E94480285019601A701C3019D
:10086000B2010E94F1022B013C0120E030E040E2A5
:1008700051E40E94B6080E94C907072E000C880B9D
:10088000990B0E940E02DECF0E945D091F920F920B
:100890000FB60F9211242F933F934F935F936F9353
:1008A0007F938F939F93AF93BF93EF93FF938AE4CC
:1008B00091E00E940901FF91EF91BF91AF919F914B
:1008C0008F917F916F915F914F913F912F910F90F9
:1008D0000FBE0F901F9018951F920F920FB60F9298
:1008E00011242F938F939F93EF93FF93E0915A01DD
:1008F000F0915B018081E0916001F091610182FDE6
:1009000012C09081809163018F5F8F732091640189
:10091000821751F0E0916301F0E0E65BFE4F958FA6
:100920008093630101C08081FF91EF919F918F912E
:100930002F910F900FBE0F901F9018951F920F923E
:100940000FB60F9211242F933F938F939F93AF93E2
:10095000BF9380913D0190913E01A0913F01B091E4
:10096000400130913C0123E0230F2D3720F4019604
:10097000A11DB11D05C026E8230F0296A11DB11DC2
:1009800020933C0180933D0190933E01A0933F0151
:10099000B09340018091410190914201A0914301A7
:1009A000B09144010196A11DB11D80934101909326
:1009B0004201A0934301B0934401BF91AF919F9135
:1009C0008F913F912F910F900FBE0F901F90189510
:1009D0001F920F920FB60F9211242F933F934F93B4
:1009E0005F936F937F938F939F93AF93BF93EF9397
:1009F000FF938091160187FF05C010928500109229
:100A000084001BC020911601022E000C330B809134
:100A1000170190E02817390784F480911601082EF9
:100A2000000C990BFC01EE0FFF1F8E0F9F1FFC01A6
:100A3000E85EFE4F808186FD15C0809116018F5FB4
:100A40008093160120911601022E000C330B809129
:100A5000170190E028173907C4F4809116018C30F3
:100A600064F113C080911601082E000C990BFC0153
:100A7000EE0FFF1F8E0F9F1FFC01E85EFE4F80816F
:100A800060E08F730E949D01D8CF80918400909187
:100A90008500049680349C4918F480E49CE905C0E4
:100AA00080918400909185000496909389008093B2
:100AB00088008FEF809316013BC020918400309115
:100AC000850080911601082E000C990BFC01EE0F99
:100AD000FF1F8E0F9F1FFC01E85EFE4F81819281F8
:100AE000820F931F90938900809388008091160154
:100AF000082E000C990BFC01EE0FFF1F8E0F9F1F9D
:100B0000FC01E85EFE4F808186FF12C080911601D5
:100B1000082E000C990BFC01EE0FFF1F8E0F9F1F7C
:100B2000FC01E85EFE4F808161E08F730E949D01B1
:100B3000FF91EF91BF91AF919F918F917F916F91B5
:100B40005F914F913F912F910F900FBE0F901F908B
:100B50001895EAE4F1E01382128288EE93E0A0E0B7
:100B6000B0E084839583A683B7838AE091E0918384
:100B7000808385EC90E09587848784EC90E097876C
:100B8000868780EC90E0918B808B81EC90E0938B5A
:100B9000828B82EC90E0958B848B86EC90E0978B37
:100BA000868B118E128E138E148E86EF91E00E942A
:100BB000CB0283EF91E00E94CB0280EF91E00E9494
:100BC000CB02E7EEF1E08091F6019091F701A09160
:100BD000F80180839183A2838091F3019091F401C5
:100BE000A091F50183839483A5838091F001909176
:100BF000F101A091F20186839783A08708957894EC
:100C000084B5826084BD84B5816084BD85B5826011
:100C100085BD85B5816085BD80916E0081608093C2
:100C20006E0010928100809181008260809381002B
:100C3000809181008160809381008091800081603B
:100C4000809380008091B10084608093B100809196
:100C5000B00081608093B00080917A0084608093BE
:100C60007A0080917A00826080937A0080917A0085
:100C7000816080937A0080917A00806880937A0006
:100C80001092C100E0915A01F0915B0182E08083F3
:100C9000E0915601F09157011082E0915801F091D6
:100CA00059018FEC808310926201E0915E01F09116
:100CB0005F0186E08083E0915C01F0915D018081BD
:100CC00080618083E0915C01F0915D0180818860AA
:100CD0008083E0915C01F0915D0180818068808378
:100CE000E0915C01F0915D0180818F7D808388E0DF
:100CF0000E94870080E090E00E94E70200E011E09F
:100D0000C0E0D0E0BE01F801819191918F010E9475
:100D100065036EE170E080E090E00E940E02219693
:100D2000C330D10579F7FF24F3948AE491E00E945F
:100D3000F300181619060CF054C0C0914801D09168
:100D400049018AE491E00E94D100FE01EA5BFE4F76
:100D500080832196C230D10529F0D0934901C093F8
:100D6000480106C01092490110924801F0924501D5
:100D7000809145018130A9F500914701C02FD0E055
:100D800010914601612F8AE491E00E942A01602FB0
:100D90008AE491E00E942A0110924501113051F439
:100DA00060E070E0CE010E946503D0930101C09322
:100DB000000117C0123051F461E070E0CE010E94D2
:100DC0006503D0930301C09302010BC0133049F4B3
:100DD00062E070E0CE010E946503D0930501C093EC
:100DE00004010E949301A1CF052E97FB1EF40094ED
:100DF0000E940B0757FD07D00E94260707FC03D06F
:100E00004EF40C940B0750954095309521953F4F2B
:100E10004F4F5F4F089590958095709561957F4FE6
:100E20008F4F9F4F08950E944807A59F900DB49F34
:100E3000900DA49F800D911D11240895B7FF0C946F
:100E400013070E941307821B930B0895A1E21A2E29
:100E5000AA1BBB1BFD010DC0AA1FBB1FEE1FFF1F5E
:100E6000A217B307E407F50720F0A21BB30BE40BAE
:100E7000F50B661F771F881F991F1A9469F76095F5
:100E80007095809590959B01AC01BD01CF010895AF
:100E9000A29FB001B39FC001A39F700D811D1124BB
:100EA000911DB29F700D811D1124911D0895505800
:100EB000BB27AA270E946F070C9477080E94690835
:100EC00038F00E94700820F039F49F3F19F426F49E
:100ED0000C9466080EF4E095E7FB0C946008E92F8B
:100EE0000E94880858F3BA176207730784079507AA
:100EF00020F079F4A6F50C94AA080EF4E0950B2ED8
:100F0000BA2FA02D0B01B90190010C01CA01A0015B
:100F10001124FF27591B99F0593F50F4503E68F1B6
:100F20001A16F040A22F232F342F4427585FF3CFF7
:100F3000469537952795A795F0405395C9F77EF4C8
:100F40001F16BA0B620B730B840BBAF09150A1F011
:100F5000FF0FBB1F661F771F881FC2F70EC0BA0F97
:100F6000621F731F841F48F4879577956795B7951F
:100F7000F7959E3F08F0B0CF9395880F08F099271A
:100F8000EE0F9795879508950E943C0808F481E03C
:100F900008950E94D0076894B1110C94AB0808958D
:100FA0000E94900888F09F5798F0B92F9927B75161
:100FB000B0F0E1F0660F771F881F991F1AF0BA95FD
:100FC000C9F714C0B13091F00E94AA08B1E00895A9
:100FD0000C94AA08672F782F8827B85F39F0B93F9B
:100FE000CCF3869577956795B395D9F73EF49095B0
:100FF0008095709561957F4F8F4F9F4F0895E8942E
:1010000009C097FB3EF490958095709561957F4F50
:101010008F4F9F4F9923A9F0F92F96E9BB279395FE
:10102000F695879577956795B795F111F8CFFAF40E
:10103000BB0F11F460FF1BC06F5F7F4F8F4F9F4F3F
:1010400016C0882311F096E911C0772321F09EE89D
:10105000872F762F05C0662371F096E8862F70E003
:1010600060E02AF09A95660F771F881FDAF7880FDD
:101070009695879597F90895990F0008550FAA0B33
:10108000E0E8FEEF16161706E807F907C0F012169B
:101090001306E407F50798F0621B730B840B950B9E
:1010A00039F40A2661F0232B242B252B21F40895F3
:1010B0000A2609F4A140A6958FEF811D811D089590
:1010C00097F99F6780E870E060E008959FEF80ECFB
:1010D000089500240A94161617061806090608959E
:1010E00000240A9412161306140605060895092E04
:1010F0000394000C11F4882352F0BB0F40F4BF2B73
:1011000011F460FF04C06F5F7F4F8F4F9F4F0895B2
:1011100057FD9058440F551F59F05F3F71F04795A8
:10112000880F97FB991F61F09F3F79F0879508958D
:10113000121613061406551FF2CF4695F1DF08C0AC
:10114000161617061806991FF1CF869571056105C9
:1011500008940895E894BB2766277727CB0197F971
:1011600008950E943C0808F48FEF08950E94C90872
:101170000C9477080E94690838F00E94700820F0EB
:10118000952311F00C9460080C94660811240C94BB
:10119000AB080E94880870F3959FC1F3950F50E04B
:1011A000551F629FF001729FBB27F00DB11D639F19
:1011B000AA27F00DB11DAA1F649F6627B00DA11DBF
:1011C000661F829F2227B00DA11D621F739FB00D65
:1011D000A11D621F839FA00D611D221F749F3327D5
:1011E000A00D611D231F849F600D211D822F762F6E
:1011F0006A2F11249F5750409AF0F1F088234AF04B
:10120000EE0FFF1FBB1F661F771F881F91505040B6
:10121000A9F79E3F510580F00C9460080C94AB0830
:101220005F3FE4F3983ED4F3869577956795B7953D
:10123000F795E7959F5FC1F7FE2B880F911D969557
:10124000879597F90895991B79E004C0991F96171F
:1012500008F0961B881F7A95C9F78095089597FB2B
:10126000072E16F4009407D077FD09D00E94430999
:1012700007FC05D03EF4909581959F4F0895709599
:1012800061957F4F0895AA1BBB1B51E107C0AA1FA0
:10129000BB1FA617B70710F0A61BB70B881F991F17
:1012A0005A95A9F780959095BC01CD010895EE0F50
:1012B000FF1F0590F491E02D099481E090E0F894EF
:0812C0000C946209F894FFCFC1
:1012C8005A006C005A00000000002A01A600F30032
:0612D800D100E5007101E8
:107800000C94343C0C94513C0C94513C0C94513CE1
:107810000C94513C0C94513C0C94513C0C94513CB4
:107820000C94513C0C94513C0C94513C0C94513CA4
:107830000C94513C0C94513C0C94513C0C94513C94
:107840000C94513C0C94513C0C94513C0C94513C84
:107850000C94513C0C94513C0C94513C0C94513C74
:107860000C94513C0C94513C11241FBECFEFD8E036
:10787000DEBFCDBF11E0A0E0B1E0ECE9FFE702C060
:1078800005900D92A230B107D9F712E0A2E0B1E065
:1078900001C01D92AD30B107E1F70E942D3D0C945F
:1078A000CC3F0C94003C982F959595959595959582
:1078B000905D8F708A307CF0282F295A8091C0000B
:1078C00085FFFCCF9093C6008091C00085FFFCCF60
:1078D0002093C6000895282F205DF0CF982F809127
:1078E000C00085FFFCCF9093C6000895EF92FF92F1
:1078F0000F931F93EE24FF2487018091C00087FD22
:1079000017C00894E11CF11C011D111D81E4E8164B
:1079100082E4F8068FE0080780E0180770F3E09132
:107920000401F091050109958091C00087FFE9CF1E
:107930008091C6001F910F91FF90EF9008950E94D3
:10794000763C982F8091C00085FFFCCF9093C600B5
:1079500091362CF490330CF09053892F089597555D
:10796000892F08951F930E949F3C182F0E949F3CCF
:107970001295107F810F1F9108951F93182F882350
:1079800021F00E94763C1150E1F71F9108951F935A
:10799000182F0E94763C803249F0809103018F5F5E
:1079A000809303018530C1F01F9108958091C0003C
:1079B00085FFFCCF84E18093C6008091C00085FFE5
:1079C000FCCF1093C6008091C00085FFFCCF80E102
:1079D0008093C6001F910895E0910401F091050184
:1079E00009951F9108950E94763C803241F0809164
:1079F00003018F5F80930301853081F008958091AA
:107A0000C00085FFFCCF84E18093C6008091C00058
:107A100085FFFCCF80E18093C6000895E0910401CA
:107A2000F09105010995089540E951E08823A1F0FE
:107A30002D9A28EE33E0FA013197F1F721503040CA
:107A4000D1F72D9828EE33E0FA013197F1F7215064
:107A50003040D1F7815061F708953F924F925F9285
:107A60006F927F928F929F92AF92BF92CF92DF924E
:107A7000EF92FF920F931F93CF93DF93000080E16B
:107A80008093C4001092C50088E18093C10086E015
:107A90008093C2005098589A259A81E00E94143D24
:107AA00024E1F22E9EE1E92E85E9D82E0FE0C02ECA
:107AB00010E1B12EAA24A394B1E49B2EA6E58A2E50
:107AC000F2E57F2EE0E26E2E79E4572E63E5462E36
:107AD00050E5352E0E94763C8033B1F18133B9F107
:107AE000803409F46FC0813409F476C0823409F41B
:107AF00085C0853409F488C0803531F1823521F1A3
:107B0000813511F1853509F485C0863509F48DC0BC
:107B1000843609F496C0843709F403C1853709F423
:107B200072C1863709F466C0809103018F5F80932C
:107B30000301853079F6E0910401F0910501099582
:107B40000E94763C803351F60E94F33CC3CF0E94E2
:107B5000763C803249F78091C00085FFFCCFF092DF
:107B6000C6008091C00085FFFCCF9092C600809136
:107B7000C00085FFFCCF8092C6008091C00085FFC9
:107B8000FCCF7092C6008091C00085FFFCCF609250
:107B9000C6008091C00085FFFCCF5092C600809146
:107BA000C00085FFFCCF4092C6008091C00085FFD9
:107BB000FCCF3092C6008091C00085FFFCCFB09210
:107BC000C60088CF0E94763C863808F4BDCF0E945C
:107BD000763C0E94F33C7ECF0E94763C803809F4CC
:107BE0009CC0813809F40BC1823809F43CC1883942
:107BF00009F48FC080E00E94C73C6CCF84E10E94F2
:107C0000BD3C0E94F33C66CF85E00E94BD3C0E94D3
:107C1000F33C60CF0E94763C809306010E94763C44
:107C2000809307010E94F33C55CF0E94763C80333D
:107C300009F41DC183E00E94BD3C80E00E94C73C66
:107C400049CF0E94763C809309020E94763C809343
:107C5000080280910C028E7F80930C020E94763C79
:107C6000853409F415C18091080290910902892B8D
:107C700089F000E010E00E94763CF801E85FFE4FDA
:107C800080830F5F1F4F80910802909109020817AF
:107C9000190788F30E94763C803209F045CF809125
:107CA0000C0280FF01C16091060170910701660F0F
:107CB000771F7093070160930601A0910802B091AD
:107CC00009021097C9F0E8E0F1E09B01AD014E0F09
:107CD0005F1FF999FECF32BD21BD819180BDFA9A17
:107CE000F99A2F5F3F4FE417F50799F76A0F7B1F4B
:107CF00070930701609306018091C00085FFFCCF5F
:107D0000F092C6008091C00085FFFCCFB092C60003
:107D1000E1CE83E00E94C73CDDCE82E00E94C73CFA
:107D2000D9CE0E94763C809309020E94763C8093D3
:107D300008028091060190910701880F991F909386
:107D40000701809306010E94763C853409F4A6C0A1
:107D500080910C028E7F80930C020E94763C8032D0
:107D600009F0B8CE8091C00085FFFCCFF092C6002C
:107D7000609108027091090261157105B9F140E046
:107D800050E080910C02A82FA170B82FB27011C0E2
:107D9000BB2309F45CC0E0910601F0910701319624
:107DA000F0930701E09306014F5F5F4F46175707B7
:107DB000E8F4AA2369F3F999FECF209106013091E6
:107DC000070132BD21BDF89A90B58091C00085FFB2
:107DD000FCCF9093C6002F5F3F4F30930701209355
:107DE00006014F5F5F4F4617570718F38091C00099
:107DF00085FDE5CE8091C00085FFF8CFE0CE81E023
:107E00000E94C73C67CE0E94763C803209F08CCE3F
:107E10008091C00085FFFCCFF092C6008091C00029
:107E200085FFFCCFE092C6008091C00085FFFCCFAB
:107E3000D092C6008091C00085FFFCCFC092C600E2
:107E40008091C00085FFFCCFB092C60043CEE09188
:107E50000601F091070194918091C00085FFFCCF4D
:107E60009093C6009CCF80E10E94C73C33CE0E9415
:107E7000763C0E94763C182F0E94763C112309F430
:107E800083C0113009F484C08FE00E94C73C22CE29
:107E900080910C02816080930C02E5CE80910C02EF
:107EA000816080930C0259CF809107018823880F4D
:107EB000880B8A2180930B02809106019091070123
:107EC000880F991F90930701809306018091080203
:107ED00080FF09C080910802909109020196909359
:107EE000090280930802F894F999FECF1127E091D6
:107EF0000601F0910701C8E0D1E08091080290915D
:107F00000902103091F40091570001700130D9F34B
:107F100003E000935700E89500915700017001308D
:107F2000D9F301E100935700E89509901990009169
:107F3000570001700130D9F301E000935700E89534
:107F40001395103498F011270091570001700130FB
:107F5000D9F305E000935700E895009157000170B0
:107F60000130D9F301E100935700E895329602976A
:107F700009F0C7CF103011F00296E5CF112480919F
:107F8000C00085FFB9CEBCCE8EE10E94C73CA2CD19
:0C7F900085E90E94C73C9ECDF894FFCF0D
:027F9C00800063
:040000030000780081
:00000001FF
