:100000000C945D000C9485000C9485000C94850084
:100010000C9485000C9485000C9485000C9485004C
:100020000C9485000C9485000C9485000C94F004CD
:100030000C9485000C9485000C9485000C9485002C
:100040000C94A6040C9485000C9474040C944E0437
:100050000C9485000C9485000C9485000C9485000C
:100060000C9485000C94850000000008000201003B
:100070000003040700000000000000000000000072
:10008000250028002B0000000000240027002A0083
:10009000040404040404040402020202020203032E
:1000A0000303030301020408102040800102040836
:1000B0001020010204081020B10511241FBECFEF4B
:1000C000D8E0DEBFCDBF26E0AAE1B1E001C01D92BD
:1000D000A533B207E1F711E0A0E0B1E0E2E6F3E119
:1000E00002C005900D92AA31B107D9F710E0CDE515
:1000F000D0E004C02197FE010E940807CC35D1074B
:10010000C9F70E9407060C94AF090C94000090E018
:10011000FC01EC55FF4F2491FC01E057FF4F849107
:10012000882399F090E0880F991FFC01EA57FF4F50
:10013000A591B491FC01E458FF4F859194918FB73C
:10014000F894EC91E22BEC938FBF0895CF92DF925D
:10015000EF92FF920F931F93CF93DF936C017A017D
:100160008B01C0E0D0E0CE15DF0589F0D8016D919C
:100170008D01D601ED91FC910190F081E02DC60139
:100180000995892B11F47E0102C02196ECCFC7019D
:10019000DF91CF911F910F91FF90EF90DF90CF9063
:1001A0000895FC01918D828D981761F0828DDF0199
:1001B000A80FB11D5D968C91928D9F5F9F73928F5A
:1001C00090E008958FEF9FEF0895FC01918D828D4F
:1001D000981731F0828DE80FF11D858D90E008951C
:1001E0008FEF9FEF0895FC01918D228D892F90E074
:1001F000805C9F4F821B91098F739927089586E831
:1002000095E00E94F30021E0892B09F420E0822F81
:100210000895FC01848DDF01A80FB11DA35ABF4FC3
:100220002C91848D90E001968F739927848FA689F5
:10023000B7892C93A089B1898C9180648C93938D1C
:10024000848D981306C00288F389E02D80818F7D0C
:1002500080830895EF92FF920F931F93CF93DF93C4
:10026000EC0181E0888F9B8D8C8D981305C0E88907
:10027000F989808185FD24C0F62E0B8D10E00F5F7B
:100280001F4F0F731127E02E8C8DE8120CC00FB694
:1002900007FCFACFE889F989808185FFF5CFCE0187
:1002A0000E940901F1CF8B8DFE01E80FF11DE35A89
:1002B000FF4FF0820B8FEA89FB898081806207C043
:1002C000EE89FF896083E889F98980818064808371
:1002D00081E090E0DF91CF911F910F91FF90EF901F
:1002E0000895CF93DF93EC01888D8823C9F0EA89C4
:1002F000FB89808185FD05C0A889B9898C9186FD1F
:100300000FC00FB607FCF5CF808185FFF2CFA8891B
:10031000B9898C9185FFEDCFCE010E940901E7CF0D
:10032000DF91CF91089580E090E0892B29F00E9421
:10033000FF0081110C940000089590E0FC01E85941
:10034000FF4F3491FC01EC55FF4F2491FC01E05725
:10035000FF4FE491EE2309F43BC0332339F13330EE
:1003600091F038F43130A9F0323001F584B58F7D49
:1003700012C0373091F03830A1F03430B9F48091A8
:1003800080008F7D03C0809180008F7780938000F4
:100390000DC084B58F7784BD09C08091B0008F7780
:1003A00003C08091B0008F7D8093B000F0E0EE0F2D
:1003B000FF1FE458FF4FA591B4918FB7F894EC91CB
:1003C000611103C020952E2301C02E2B2C938FBFCB
:1003D00008953FB7F89480917D0590917E05A09196
:1003E0007F05B091800526B5A89B05C02F3F19F069
:1003F0000196A11DB11D3FBFBA2FA92F982F8827A5
:10040000820F911DA11DB11DBC01CD0142E0660FFF
:10041000771F881F991F4A95D1F708958F929F9251
:10042000AF92BF92CF92DF92EF92FF926B017C016D
:100430000E94E9014B015C01C114D104E104F10403
:10044000F1F00E94E901DC01CB0188199909AA09A0
:10045000BB09883E9340A105B10570F321E0C21AA3
:10046000D108E108F10888EE880E83E0981EA11CEF
:10047000B11CC114D104E104F10419F7DDCFFF90E0
:10048000EF90DF90CF90BF90AF909F908F900895A6
:10049000CF92DF92EF92FF92CF93DF93EC01603225
:1004A00082E078070CF03DC077FD06C0653B710522
:1004B0002CF064EB70E002C060E070E0898128E815
:1004C00030E06901C81AD10887FDD394CC0CDD1C3B
:1004D000CC0CDD1C0D2C000CEE08FF088A8128E5F1
:1004E00032E0281B310987FD3395220F331F220F7D
:1004F000331FC901330FAA0BBB0B9C01AD012C1993
:100500003D094E095F09DB010E94760924EB30E0CA
:1005100040E050E00E944C09C20ED31EE41EF51EBE
:10052000B60188818C3080F5998148E850E0491BFC
:10053000510997FD5395440F551F440F551F6417DC
:10054000750784F09A8128E532E0291B310997FD6F
:100550003395220F331F220F331FAB0126173707A6
:100560000CF4A90142505109440F551F2FB7F894BC
:1005700090E0FC01EE0FFF1F8E0F9F1FFC01EC5A55
:10058000FA4F528341832FBFDF91CF91FF90EF90BD
:10059000DF90CF900895FC01909153059C30A0F41A
:1005A00081E0890F809353059083892F90E0FC01AF
:1005B000EE0FFF1F8E0F9F1FFC01EC5AFA4F88EBC6
:1005C0009BE09283818308958FEF80830895682F45
:1005D00088E00E949D016AE070E080E090E00C9469
:1005E0000E024F925F926F927F92AF92BF92CF9224
:1005F000DF92EF92FF920F931F93CF93DF938C01C3
:100600007B0181E090E00E94E7026701CC0CDD1CD9
:10061000E601CE0DDF1DCD5DD94F88818C3008F00D
:100620005AC0570189E0A80EB11C8A2D0E9487008C
:100630008881E82FF0E09F01220F331FE20FF31FA4
:10064000EC5AFA4F9A2D9F732081207CA22EA92A62
:10065000A08297EA99839BE49A836CE00E94FC064F
:100660009CE0899FB001112440E050E09A01260FE0
:10067000371FF901EE0FFF1F2E0F3F1FF901EC5A34
:10068000FA4F908196FD16C04F5F5F4F4C30510579
:1006900069F781110FC01092800082E08093810081
:1006A0001092850010928400B19A80916F00826050
:1006B00080936F00F601EE0DFF1DED5DF94FE081B7
:1006C000F0E0CF01880F991FE80FF91FEC5AFA4F9D
:1006D000808180648083F601E050FF4FE080F180EC
:1006E00052E8C52E52E0D52EAAE1B1E0F6011192F2
:1006F0001192119211921D921D9285E0E235F80738
:10070000B1F7F701E01BF10BF7FF03C0F195E1959D
:10071000F109A2E8B2E080E090E040E050E060E85B
:100720007FE38E179F0731F04D935D936D937D931B
:100730000196F7CFAEE1B1E082E090E09F01225058
:10074000310941E050E08217930724F44D935D9303
:100750000196F9CF5F01B594A794B5010B2C000C5D
:10076000880B990B0E942A0820E030E040E05FE30C
:100770000E94DA0820E030E040E251E40E94800765
:100780009B01AC0160E070E080E89FE30E940E07EF
:100790002B013C012DEC3CEC4CEC5EE30E947B0712
:1007A00087FF07C03DEC432E3CEC532E652C3EE307
:1007B000732EF501EE0FFF1FEE0FFF1FEE57FD4FDB
:1007C0004082518262827382F501EE0FFF1FE65E66
:1007D000FE4F11821082C8018E199F091816190642
:1007E0002CF08AE8C82E82E0D82E37C00E151F05DF
:1007F000E4F09FEFE91AF90AB701CE010E9448021E
:10080000F60161917191819191916F0120E030E049
:1008100040E251E40E94DA080E94F207072E000C21
:10082000880B990B0E940E02E1CF68EE73E080E026
:1008300090E00E940E0280E090E0DF91CF911F9146
:100840000F91FF90EF90DF90CF90BF90AF907F908F
:100850006F905F904F900C94E702E016F1062CF336
:10086000F1E0EF1AF108B701CE010E944802F6014B
:1008700061917191819191916F0120E030E040E2AE
:1008800051E40E94DA080E94F207072E000C880B40
:10089000990B0E940E02E1CF0E9447091F920F920E
:1008A0000FB60F9211242F933F934F935F936F9343
:1008B0007F938F939F93AF93BF93EF93FF9386E8BC
:1008C00095E00E940901FF91EF91BF91AF919F9137
:1008D0008F917F916F915F914F913F912F910F90E9
:1008E0000FBE0F901F9018951F920F920FB60F9288
:1008F00011242F938F939F93EF93FF93E09196058D
:10090000F09197058081E0919C05F0919D0582FD15
:1009100012C0908180919F058F5F8F732091A005F9
:10092000821751F0E0919F05F0E0EA57FA4F958F5A
:1009300080939F0501C08081FF91EF919F918F91DE
:100940002F910F900FBE0F901F9018951F920F922E
:100950000FB60F9211242F933F938F939F93AF93D2
:10096000BF938091790590917A05A0917B05B09114
:100970007C053091780523E0230F2D3720F4019674
:10098000A11DB11D05C026E8230F0296A11DB11DB2
:10099000209378058093790590937A05A0937B0541
:1009A000B0937C0580917D0590917E05A0917F0597
:1009B000B09180050196A11DB11D80937D05909396
:1009C0007E05A0937F05B0938005BF91AF919F9165
:1009D0008F913F912F910F900FBE0F901F90189500
:1009E0001F920F920FB60F9211242F933F934F93A4
:1009F0005F936F937F938F939F93AF93BF93EF9387
:100A0000FF938091520587FF05C0109285001092D8
:100A100084001BC020915205022E000C330B8091E4
:100A2000530590E02817390784F480915205082E69
:100A3000000C990BFC01EE0FFF1F8E0F9F1FFC0196
:100A4000EC5AFA4F808186FD15C0809152058F5F68
:100A50008093520520915205022E000C330B809199
:100A6000530590E028173907C4F4809152058C3063
:100A700064F113C080915205082E000C990BFC0103
:100A8000EE0FFF1F8E0F9F1FFC01EC5AFA4F808163
:100A900060E08F730E949D01D8CF80918400909177
:100AA0008500049680349C4918F480E49CE905C0D4
:100AB00080918400909185000496909389008093A2
:100AC00088008FEF809352053BC0209184003091C5
:100AD000850080915205082E000C990BFC01EE0F49
:100AE000FF1F8E0F9F1FFC01EC5AFA4F81819281EC
:100AF000820F931F90938900809388008091520504
:100B0000082E000C990BFC01EE0FFF1F8E0F9F1F8C
:100B1000FC01EC5AFA4F808186FF12C08091520589
:100B2000082E000C990BFC01EE0FFF1F8E0F9F1F6C
:100B3000FC01EC5AFA4F808161E08F730E949D01A5
:100B4000FF91EF91BF91AF919F918F917F916F91A5
:100B50005F914F913F912F910F900FBE0F901F907B
:100B60001895E6E8F5E01382128288EE93E0A0E0A3
:100B7000B0E084839583A683B7838EE091E0918370
:100B8000808385EC90E09587848784EC90E097875C
:100B9000868780EC90E0918B808B81EC90E0938B4A
:100BA000828B82EC90E0958B848B86EC90E0978B27
:100BB000868B118E128E138E148E82E396E00E9425
:100BC000CB028FE296E00E94CB028CE296E00E947C
:100BD000CB02E3E2F6E08091320690913306A091D9
:100BE000340680839183A28380912F0690913006F2
:100BF000A091310683839483A58380912C069091E4
:100C00002D06A0912E0686839783A0870895789459
:100C100084B5826084BD84B5816084BD85B5826001
:100C200085BD85B5816085BD80916E0081608093B2
:100C30006E0010928100809181008260809381001B
:100C4000809181008160809381008091800081602B
:100C5000809380008091B10084608093B100809186
:100C6000B00081608093B00080917A0084608093AE
:100C70007A0080917A00826080937A0080917A0075
:100C8000816080937A0080917A00806880937A00F6
:100C90001092C100E0919605F091970582E0808363
:100CA000E0919205F09193051082E0919405F09106
:100CB00095058FEC808310929E05E0919A05F09146
:100CC0009B0586E08083E0919805F09199058081ED
:100CD00080618083E0919805F0919905808188601A
:100CE0008083E0919805F0919905808180688083E8
:100CF000E0919805F091990580818F7D808388E04F
:100D00000E94870080E090E00E94E70200E011E08E
:100D1000C0E0D0E0BE01F801819191918F010E9465
:100D2000F1026EE170E080E090E00E940E022196F8
:100D3000C330D10579F7FF24F39486E895E00E944B
:100D4000F300181619060CF054C0C0918405D09118
:100D5000850586E895E00E94D100FE01EE57FA4F26
:100D600080832196C230D10529F0D0938505C093A8
:100D7000840506C01092850510928405F0928105C5
:100D8000809181058130A9F500918305C02FD0E0C5
:100D900010918205612F86E895E00E942A01602F5C
:100DA00086E895E00E942A0110928105113051F4E5
:100DB00060E070E0CE010E94F102D0930101C09387
:100DC000000117C0123051F461E070E0CE010E94C2
:100DD000F102D0930301C09302010BC0133049F418
:100DE00062E070E0CE010E94F102D0930501C09351
:100DF00004010E949301A1CF991B79E004C0991FBF
:100E0000961708F0961B881F7A95C9F78095089564
:100E1000EE0FFF1F0590F491E02D09945058BB2769
:100E2000AA270E9426070C94A0080E94920838F076
:100E30000E94990820F039F49F3F19F426F40C948D
:100E40008F080EF4E095E7FB0C948908E92F0E94C7
:100E5000B10858F3BA17620773078407950720F0A3
:100E600079F4A6F50C94D3080EF4E0950B2EBA2F66
:100E7000A02D0B01B90190010C01CA01A0011124A0
:100E8000FF27591B99F0593F50F4503E68F11A164C
:100E9000F040A22F232F342F4427585FF3CF4695DD
:100EA00037952795A795F0405395C9F77EF41F16FF
:100EB000BA0B620B730B840BBAF09150A1F0FF0FC9
:100EC000BB1F661F771F881FC2F70EC0BA0F621FB5
:100ED000731F841F48F4879577956795B795F795A5
:100EE0009E3F08F0B0CF9395880F08F09927EE0F3A
:100EF0009795879508950E94650808F481E0089504
:100F00000E9494070C94A0080E94990858F00E942F
:100F1000920840F029F45F3F29F00C9489085111A0
:100F20000C94D4080C948F080E94B10868F399239C
:100F3000B1F3552391F3951B550BBB27AA276217D5
:100F40007307840738F09F5F5F4F220F331F441FE2
:100F5000AA1FA9F335D00E2E3AF0E0E832D0915016
:100F60005040E695001CCAF72BD0FE2F29D0660F03
:100F7000771F881FBB1F261737074807AB07B0E846
:100F800009F0BB0B802DBF01FF2793585F4F3AF04C
:100F90009E3F510578F00C9489080C94D4085F3F6B
:100FA000E4F3983ED4F3869577956795B795F795D2
:100FB0009F5FC9F7880F911D9695879597F90895BA
:100FC000E1E0660F771F881FBB1F62177307840756
:100FD000BA0720F0621B730B840BBA0BEE1F88F765
:100FE000E09508950E94F9076894B1110C94D40813
:100FF00008950E94B90888F09F5798F0B92F992753
:10100000B751B0F0E1F0660F771F881F991F1AF0F3
:10101000BA95C9F714C0B13091F00E94D308B1E07D
:1010200008950C94D308672F782F8827B85F39F07C
:10103000B93FCCF3869577956795B395D9F73EF48C
:1010400090958095709561957F4F8F4F9F4F089534
:10105000E89409C097FB3EF4909580957095619552
:101060007F4F8F4F9F4F9923A9F0F92F96E9BB2708
:101070009395F695879577956795B795F111F8CF84
:10108000FAF4BB0F11F460FF1BC06F5F7F4F8F4FEF
:101090009F4F16C0882311F096E911C0772321F0E5
:1010A0009EE8872F762F05C0662371F096E8862F7D
:1010B00070E060E02AF09A95660F771F881FDAF7D4
:1010C000880F9695879597F90895990F0008550F01
:1010D000AA0BE0E8FEEF16161706E807F907C0F0BE
:1010E00012161306E407F50798F0621B730B840BC6
:1010F000950B39F40A2661F0232B242B252B21F4A0
:1011000008950A2609F4A140A6958FEF811D811D3F
:10111000089597F99F6780E870E060E008959FEF79
:1011200080EC089500240A9416161706180609067E
:10113000089500240A94121613061406050608954D
:10114000092E0394000C11F4882352F0BB0F40F4D5
:10115000BF2B11F460FF04C06F5F7F4F8F4F9F4F15
:10116000089557FD9058440F551F59F05F3F71F097
:101170004795880F97FB991F61F09F3F79F08795FE
:101180000895121613061406551FF2CF4695F1DF87
:1011900008C0161617061806991FF1CF8695710517
:1011A000610508940895E894BB2766277727CB014B
:1011B00097F908950E94ED080C94A0080E949208E7
:1011C00038F00E94990820F0952311F00C948908BA
:1011D0000C948F0811240C94D4080E94B10870F369
:1011E000959FC1F3950F50E0551F629FF001729FCC
:1011F000BB27F00DB11D639FAA27F00DB11DAA1FDB
:10120000649F6627B00DA11D661F829F2227B00D27
:10121000A11D621F739FB00DA11D621F839FA00DB2
:10122000611D221F749F3327A00D611D231F849F02
:10123000600D211D822F762F6A2F11249F57504059
:101240009AF0F1F088234AF0EE0FFF1FBB1F661FD4
:10125000771F881F91505040A9F79E3F510580F09D
:101260000C9489080C94D4085F3FE4F3983ED4F3BF
:10127000869577956795B795F795E7959F5FC1F741
:10128000FE2B880F911D9695879597F9089581E01B
:1012900090E0F8940C94AF09052E97FB1EF400948F
:1012A0000E94630957FD07D00E947E0907FC03D006
:1012B0004EF40C94630950954095309521953F4F1D
:1012C0004F4F5F4F089590958095709561957F4F32
:1012D0008F4F9F4F08950E94A009A59F900DB49F26
:1012E000900DA49F800D911D11240895B7FF0C94BB
:1012F0006B090E946B09821B930B0895A1E21A2EC1
:10130000AA1BBB1BFD010DC0AA1FBB1FEE1FFF1FA9
:10131000A217B307E407F50720F0A21BB30BE40BF9
:10132000F50B661F771F881F991F1A9469F7609540
:101330007095809590959B01AC01BD01CF010895FA
:10134000A29FB001B39FC001A39F700D811D112406
:10135000911DB29F700D811D1124911D0895F89467
:02136000FFCFBD
:101362005A006C005A0001000000000000002A012F
:0A137200A600F300D100E5007101B0
:107800000C94343C0C94513C0C94513C0C94513CE1
:107810000C94513C0C94513C0C94513C0C94513CB4
:107820000C94513C0C94513C0C94513C0C94513CA4
:107830000C94513C0C94513C0C94513C0C94513C94
:107840000C94513C0C94513C0C94513C0C94513C84
:107850000C94513C0C94513C0C94513C0C94513C74
:107860000C94513C0C94513C11241FBECFEFD8E036
:10787000DEBFCDBF11E0A0E0B1E0ECE9FFE702C060
:1078800005900D92A230B107D9F712E0A2E0B1E065
:1078900001C01D92AD30B107E1F70E942D3D0C945F
:1078A000CC3F0C94003C982F959595959595959582
:1078B000905D8F708A307CF0282F295A8091C0000B
:1078C00085FFFCCF9093C6008091C00085FFFCCF60
:1078D0002093C6000895282F205DF0CF982F809127
:1078E000C00085FFFCCF9093C6000895EF92FF92F1
:1078F0000F931F93EE24FF2487018091C00087FD22
:1079000017C00894E11CF11C011D111D81E4E8164B
:1079100082E4F8068FE0080780E0180770F3E09132
:107920000401F091050109958091C00087FFE9CF1E
:107930008091C6001F910F91FF90EF9008950E94D3
:10794000763C982F8091C00085FFFCCF9093C600B5
:1079500091362CF490330CF09053892F089597555D
:10796000892F08951F930E949F3C182F0E949F3CCF
:107970001295107F810F1F9108951F93182F882350
:1079800021F00E94763C1150E1F71F9108951F935A
:10799000182F0E94763C803249F0809103018F5F5E
:1079A000809303018530C1F01F9108958091C0003C
:1079B00085FFFCCF84E18093C6008091C00085FFE5
:1079C000FCCF1093C6008091C00085FFFCCF80E102
:1079D0008093C6001F910895E0910401F091050184
:1079E00009951F9108950E94763C803241F0809164
:1079F00003018F5F80930301853081F008958091AA
:107A0000C00085FFFCCF84E18093C6008091C00058
:107A100085FFFCCF80E18093C6000895E0910401CA
:107A2000F09105010995089540E951E08823A1F0FE
:107A30002D9A28EE33E0FA013197F1F721503040CA
:107A4000D1F72D9828EE33E0FA013197F1F7215064
:107A50003040D1F7815061F708953F924F925F9285
:107A60006F927F928F929F92AF92BF92CF92DF924E
:107A7000EF92FF920F931F93CF93DF93000080E16B
:107A80008093C4001092C50088E18093C10086E015
:107A90008093C2005098589A259A81E00E94143D24
:107AA00024E1F22E9EE1E92E85E9D82E0FE0C02ECA
:107AB00010E1B12EAA24A394B1E49B2EA6E58A2E50
:107AC000F2E57F2EE0E26E2E79E4572E63E5462E36
:107AD00050E5352E0E94763C8033B1F18133B9F107
:107AE000803409F46FC0813409F476C0823409F41B
:107AF00085C0853409F488C0803531F1823521F1A3
:107B0000813511F1853509F485C0863509F48DC0BC
:107B1000843609F496C0843709F403C1853709F423
:107B200072C1863709F466C0809103018F5F80932C
:107B30000301853079F6E0910401F0910501099582
:107B40000E94763C803351F60E94F33CC3CF0E94E2
:107B5000763C803249F78091C00085FFFCCFF092DF
:107B6000C6008091C00085FFFCCF9092C600809136
:107B7000C00085FFFCCF8092C6008091C00085FFC9
:107B8000FCCF7092C6008091C00085FFFCCF609250
:107B9000C6008091C00085FFFCCF5092C600809146
:107BA000C00085FFFCCF4092C6008091C00085FFD9
:107BB000FCCF3092C6008091C00085FFFCCFB09210
:107BC000C60088CF0E94763C863808F4BDCF0E945C
:107BD000763C0E94F33C7ECF0E94763C803809F4CC
:107BE0009CC0813809F40BC1823809F43CC1883942
:107BF00009F48FC080E00E94C73C6CCF84E10E94F2
:107C0000BD3C0E94F33C66CF85E00E94BD3C0E94D3
:107C1000F33C60CF0E94763C809306010E94763C44
:107C2000809307010E94F33C55CF0E94763C80333D
:107C300009F41DC183E00E94BD3C80E00E94C73C66
:107C400049CF0E94763C809309020E94763C809343
:107C5000080280910C028E7F80930C020E94763C79
:107C6000853409F415C18091080290910902892B8D
:107C700089F000E010E00E94763CF801E85FFE4FDA
:107C800080830F5F1F4F80910802909109020817AF
:107C9000190788F30E94763C803209F045CF809125
:107CA0000C0280FF01C16091060170910701660F0F
:107CB000771F7093070160930601A0910802B091AD
:107CC00009021097C9F0E8E0F1E09B01AD014E0F09
:107CD0005F1FF999FECF32BD21BD819180BDFA9A17
:107CE000F99A2F5F3F4FE417F50799F76A0F7B1F4B
:107CF00070930701609306018091C00085FFFCCF5F
:107D0000F092C6008091C00085FFFCCFB092C60003
:107D1000E1CE83E00E94C73CDDCE82E00E94C73CFA
:107D2000D9CE0E94763C809309020E94763C8093D3
:107D300008028091060190910701880F991F909386
:107D40000701809306010E94763C853409F4A6C0A1
:107D500080910C028E7F80930C020E94763C8032D0
:107D600009F0B8CE8091C00085FFFCCFF092C6002C
:107D7000609108027091090261157105B9F140E046
:107D800050E080910C02A82FA170B82FB27011C0E2
:107D9000BB2309F45CC0E0910601F0910701319624
:107DA000F0930701E09306014F5F5F4F46175707B7
:107DB000E8F4AA2369F3F999FECF209106013091E6
:107DC000070132BD21BDF89A90B58091C00085FFB2
:107DD000FCCF9093C6002F5F3F4F30930701209355
:107DE00006014F5F5F4F4617570718F38091C00099
:107DF00085FDE5CE8091C00085FFF8CFE0CE81E023
:107E00000E94C73C67CE0E94763C803209F08CCE3F
:107E10008091C00085FFFCCFF092C6008091C00029
:107E200085FFFCCFE092C6008091C00085FFFCCFAB
:107E3000D092C6008091C00085FFFCCFC092C600E2
:107E40008091C00085FFFCCFB092C60043CEE09188
:107E50000601F091070194918091C00085FFFCCF4D
:107E60009093C6009CCF80E10E94C73C33CE0E9415
:107E7000763C0E94763C182F0E94763C112309F430
:107E800083C0113009F484C08FE00E94C73C22CE29
:107E900080910C02816080930C02E5CE80910C02EF
:107EA000816080930C0259CF809107018823880F4D
:107EB000880B8A2180930B02809106019091070123
:107EC000880F991F90930701809306018091080203
:107ED00080FF09C080910802909109020196909359
:107EE000090280930802F894F999FECF1127E091D6
:107EF0000601F0910701C8E0D1E08091080290915D
:107F00000902103091F40091570001700130D9F34B
:107F100003E000935700E89500915700017001308D
:107F2000D9F301E100935700E89509901990009169
:107F3000570001700130D9F301E000935700E89534
:107F40001395103498F011270091570001700130FB
:107F5000D9F305E000935700E895009157000170B0
:107F60000130D9F301E100935700E895329602976A
:107F700009F0C7CF103011F00296E5CF112480919F
:107F8000C00085FFB9CEBCCE8EE10E94C73CA2CD19
:0C7F900085E90E94C73C9ECDF894FFCF0D
:027F9C00800063
:040000030000780081
:00000001FF
